:020000040000FA
:020000000728CF
:04000A00003400348A
:02000E0083016C
:1000100083160514051685168813081170308F0095
:1000200011309100D0009F003F3092008730810056
:1000300007309C00831211309F009B010C309D0003
:1000400012158801C2208817E601E7010B1D26283A
:100050000B11E70A31204C20E71E30285C20E70115
:1000600026288813F0309D05000008155030E50063
:10007000E50B38283F306605213E840083019F143C
:100080009F1840281E088000E60A01309F000F30AC
:100090009D0488176D2008009F149F184D281E0886
:1000A000A00011309F00200E30398D389D00A00C2B
:1000B000200C3F399B0008006308EA006408EB004D
:1000C0009F206E0E0F39DD206D080F397A216D0EDD
:1000D0000F391722C622DE2208008301E201E10166
:1000E000213084004030E5000008E2070318E10AEF
:1000F000840AE50B74280310E10CE20CE10CE20C1D
:100100006208F039E40061080F39E3000310E10CE4
:10011000E20C6208F839E4070318E30A61080739BA
:10012000E3070310E10CE20CE10CE20C6208FE397B
:10013000E4070318E30A61080139E3070800031024
:100140001030E800EC01ED01EE01EB0DEA0DEE0DD3
:10015000ED0DEC0DE80BAD2800346E308400B720B7
:100160006D308400B7206C308400B720A5280330A0
:100170000007E900E919800030300007E900E91BB9
:1001800080000034030883120317A0004F309C0046
:1001900008309D00E1309E00900191019201930191
:1001A0009401950196019701980199019A019B018B
:1001B0002030880093308700262BF000030883123C
:1001C0000317A00000308A0070080F39EA3E0318B8
:1001D0008A0A8200FA2802290A2912291A292229C0
:1001E0002A2932293A2942294A2952295A29622997
:1001F0006A2972291217921798171B1718171517C3
:100200009513262B1213921798171B1318131513F7
:100210009513262B1217921798131B1718171513DF
:100220009517262B1217921798171B1718131513CB
:100230009517262B1213921798171B1318131517BF
:100240009517262B1217921398171B1718131517AB
:100250009517262B1217921398171B171817151797
:100260009517262B1217921798171B13181315138F
:100270009513262B1217921798171B171817151777
:100280009517262B1217921798171B171813151767
:100290009517262B1217921798171B131817151757
:1002A0009517262B1213921398171B17181715174B
:1002B0009517262B1217921398131B17181715173B
:1002C0009513262B1213921798171B17181715132F
:1002D0009517262B1217921398131B17181715171B
:1002E0009517262B1217921398131B13181715170F
:1002F0009517262BF000030883120317A000013086
:100300008A0070080F39873E03188A0A82009729ED
:100310009F29A729AF29B729BF29C729CF29D729BD
:10032000DF29E729EF29F729FF29072A0F2A1017C4
:10033000921698161917161713179512262B1013C5
:10034000921698161913161313139512262B1017BD
:10035000921698121917161713139516262B1017A5
:10036000921698161917161313139516262B101399
:10037000921698161913161313179516262B101785
:10038000921298161917161313179516262B101775
:10039000921298161917161713179516262B101761
:1003A000921698161913161313139512262B10175D
:1003B000921698161917161713179516262B10173D
:1003C000921698161917161313179516262B101731
:1003D000921698161913161713179516262B101325
:1003E000921298161917161713179516262B101711
:1003F000921298121917161713179512262B10130D
:10040000921698161917161713139516262B1017F0
:10041000921298121917161713179516262B1017E4
:10042000921298121913161713179516262BF0000F
:10043000030883120317A00002308A0070080F39E6
:10044000243E03188A0A8200342A3C2A442A4C2A71
:10045000542A5C2A642A6C2A742A7C2A842A8C2ACC
:10046000942A9C2AA42AAC2A9015911597159915BF
:10047000961593159411262B901191159715991196
:10048000961193119411262B90159115971199158A
:10049000961593119415262B90159115971599156E
:1004A000961193119415262B90119115971599116A
:1004B000961193159415262B901591119715991552
:1004C000961193159415262B901591119715991542
:1004D000961593159415262B90159115971599112E
:1004E000961193119411262B901591159715991526
:1004F000961593159415262B90159115971599150A
:10050000961193159415262B901591159715991101
:10051000961593159415262B9011911197159915F1
:10052000961593159415262B9015911197119915E1
:10053000961593159411262B9011911597159915D1
:10054000961593119415262B9015911197119915C5
:10055000961593159415262B9015911197119911B5
:10056000961593159415262BF00003088312031794
:10057000A0007008003A031D161503191611262B4A
:10058000030883120317A0009B16262B030883126F
:100590000317A0009A15262B030883120317A00047
:1005A0001915262B030883120317A0001014262BFD
:1005B000030883120317A0001314262B03088312C9
:1005C0000317A0001614262B030883120317A0009C
:1005D0001914262B030883120317A0009014262B4E
:1005E000030883120317A0009314262B0308831219
:1005F0000317A0009614262B030883120317A000EC
:100600009914262B030883120317A0001015262B1C
:10061000030883120317A0001315262B0308831267
:100620000317A0001214262B030883120317A0003F
:100630001514262B030883120317A0001814262B69
:10064000030883120317A0001B14262B2008830025
:020650000800A0
:02400E00E4309C
:00000001FF
