:100000000A128A11FC2F00308A000408840A820731
:0E0010000034483465346C346C346F34003482
:100F2E000800F0007008831203139900080070087F
:100F3E008F396038F00070147008831603138F0019
:100F4E000800F013701370127015700883160313D7
:100F5E0098000C169816F1177113F1127116F11103
:100F6E0071088312031398000C3083160313990033
:100F7E000800F417741774088B000A128A119E2742
:100F8E000A128A110A128A11A8270A128A11FF3030
:100F9E000A128A1198270A128A1101300A128A112E
:100FAE00DD270A128A110A128A110028F300703006
:100FBE00F0007008F100E92F72080A128A119727C3
:100FCE000A128A110130F307FF30730784000A12E8
:100FDE008A1103200A128A11F0007008F2007208BA
:100FEE00031DFA2FFB2FE32F080083010A128A112B
:020FFE00C02F02
:08400000FF3FFF3FFF3FFF3FC0
:02400E00FF3F72
:00000001FF
