:100000000A128A11FC2F00308A000408840A820731
:0E0010000034483465346C346C346F34003482
:100F44000800F000700883129900080070088F39B7
:100F54006038F0007014700883168F000800F013D6
:100F6400701370127015700898000C169816F1170B
:100F74007113F1127116F1117108831298000C307B
:100F8400831699000800F417741774088B000A126A
:100F94008A11A8270A128A110A128A11B1270A1281
:100FA4008A11FF300A128A11A3270A128A1101300A
:100FB4000A128A11E0270A128A110028F3007030FD
:100FC400F0007008F1000130F307FF30730784006C
:100FD4000A128A1103200A128A11F0007008F20022
:100FE40072080319080072080A128A11A2270A1249
:0C0FF4008A11E52F83010A128A11C52F13
:02400E00FF3F72
:00000001FF
