:020000040000FA
:02000000AB2A29
:0E0012008400831370088406040684068000B0
:10002000F00A7008F03AC8300319F0008312031385
:1000300074168312031308007008710603192C2824
:1000400083137108840000089900F10A7108F03ADE
:10005000C8300319F100080083160313981C3328D5
:10006000831203137412831203130800831373089B
:100070008400F30A7308C83AA0300319F300720829
:1000800073060319F4130008080018197417831372
:10009000720884001A08F500031D7413741B08000D
:1000A0008000083A031962280D3000060319F4177E
:1000B0000008F41A0920F20A7208C83AA03003199D
:1000C000F20008000008F41A0920730872060319E8
:1000D0000800F20372089F3AC7300319F2000800C3
:1000E0007208F300F41308008316031326309800F7
:1000F000071787178312031390309800A030F3007E
:10010000F200C830F000F100181283160313D0304B
:1001100001050338810083120313A3209E2081016F
:100120009E2001300107831603139900990C99034F
:100130008312031318161A081A080800871B9E2832
:10014000871FA0280800871BA32881010B11871F88
:10015000A7280B1DA32808007420B020B721080091
:10016000F401F41608000C1E080000308A00BC30B0
:10017000260703188A0A82001C28BF294520741B01
:10018000902975081B3A03198B2975087E3A0319C3
:10019000842908003620A50000308A00D3302007CB
:1001A00003188A0A8200DF28AB29A329FF28122915
:1001B00018292B29122918291F29FA2892292508DC
:1001C0000D3A0319B9292508563A01300319F828C0
:1001D0002508413A03300319F8282508453A0B3021
:1001E0000319F82825083F3A02300319F8280A3085
:1001F000A000080025080D3A031D0800B929A00A2F
:100200002508313A031909292508303A03190B2921
:10021000F72874140800741008006821F41C080002
:10022000250856290D21F41CF728A100A00A080072
:100230000D21F41CF728A10EA104A00A080025082E
:100240000D3A031DF728240884008317741C8313B8
:1002500021088000B9292108A400A00A25083D3AF8
:100260000319080025080D3A031DF728210884000A
:100270008317741C831300083E21B72983120313CC
:10028000A200220E0F394B210920831203132208EA
:100290000F394B21092883120313A300093C2308BB
:1002A000031C073E303E831203130800831203131E
:1002B000A300603C03185E292030A3022308393CC8
:1002C0002308031CF93ED03E0F39831203130800A4
:1002D00025082F3C031880292508393C031882295A
:1002E0002508403C031880292508463C031882292C
:1002F0002508603C031880292508663C03188229DC
:10030000F4100800F4140800702074130030A000EA
:100310000030A60008007020DA30F6000130B32962
:100320008421842825080D3A031DF7282030F4067F
:10033000F41E9B299F299830F6000230B329A23081
:10034000F6000230B32925080D3A031DF728DF30E7
:10035000F6000130B32925080D3A031DF728CD30EA
:10036000F6000130B329A8000130A600BF290D30E6
:1003700009200030A0000030A6003E3009282808DF
:100380008A007608CC21003E0319B72909201C20D9
:10039000F60F0800A80A0800820055344134523490
:1003A000543420344D3461346334203430342E34AA
:1003B000343400340D3445345334433400340D3474
:1003C0004134783478347834203420342034203464
:1003D0003A34203456346934653477342034613407
:1003E00064346434723420347834783478340D349E
:1003F00041347834783478343D3479347934203465
:100400003A3420344334683461346E3467346534AC
:100410002034613464346434723420347834783471
:100420007834203474346F342034793479340D3492
:1004300056342034203420342034203420342034E6
:100440003A342034533468346F347734203476347B
:1004500065347234733469346F346E340D3445341A
:1004600020342034203420342034203420343A34D2
:10047000203454346F34673467346C34653420343A
:100480006534633468346F3420346F3466346634D2
:100490002F346F346E340D343C346534733463342C
:1004A0003E342034203420343A3420344134623411
:1004B0006F3472347434203463346F346D346D347B
:1004C00061346E3464340D343C3462346B347334D0
:1004D000703463343E3420343A342034523465343A
:1004E0006D346F347634653420346C346134733455
:1004F0007434203463346834613472346134633466
:100500007434653472340D343F3420342034203454
:1005100020342034203420343A34203453346834A6
:100520006F34773420346D3465346E347534003470
:100530000D344534633468346F3420344F346634BA
:10054000663400340D344534633468346F342034F9
:100550004F346E340034AC20741AB3208C1ABE2091
:06056000F41BCA20AC2AC6
:040566000034003429
:02400E00E4309C
:00000001FF
